:100000000C943E000C9448000C9448000C9448005A
:100010000C9448000C9448000C9448000C94480040
:100020000C9448000C9448000C9448000C94480030
:100030000C9448000C9448000C9448000C94480020
:100040000C9448000C9448000C9448000C94480010
:100050000C9448000C9448000C9448000C94480000
:100060000C9448000C9448000C9448000C944800F0
:100070000C9448000C9448000C94480011241FBEB6
:10008000CFEFD0E1DEBFCDBF0E944A000C9421012A
:100090000C940000EF92FF920F931F93DF93CF9386
:1000A000CDB7DEB72B970FB6F894DEBF0FBECDBF2E
:1000B0000E947A0080E1898383E08A8381E18B83D7
:1000C00082E28C8383E38D838E010F5F1F4FC80113
:1000D00065E00E9497008B8778010CE211E0C70170
:1000E0000E94AE0080E197E2F8013197F1F70197A5
:1000F000D9F7F5CF1092C5008CE08093C400109220
:10010000C00088E18093C10086E08093C20008951A
:10011000982F8091C00085FFFCCF9093C600089572
:100120008091C00087FFFCCF8091C6000895FC013C
:1001300090E020E037E00EC08081982780E097FFB4
:1001400003C0990F932701C0990F8F5F8830B9F7CB
:100150002F5F3196261780F3892F0895DC01809157
:10016000C00085FFFCCF8AEA8093C6009C918091F5
:10017000C00085FFFCCF9093C60011964C9111975B
:100180008091C00085FFFCCF4093C6005A2FCD015F
:10019000FC0108C092818091C00085FFFCCF909344
:1001A000C60031968E2F851B8417A0F31A969C915A
:1001B0008091C00085FFFCCF9093C6000895CF9337
:1001C000DF93EC018091C00087FFFCCF8091C600D7
:1001D0008A3A91F58091C00087FFFCCF8091C600DC
:1001E00088838091C00087FFFCCF8091C6008983FF
:1001F000893010F590E00BC08091C00087FFFCCFE4
:100200008091C600FE01E90FF11D82839F5F898105
:10021000981790F38091C00087FFFCCF8091C600B3
:100220008A8769816E5FCE010E94970020E09A85DF
:10023000891719F421E001C020E0822FDF91CF91CE
:060240000895F894FFCFC1
:00000001FF
